:020000040800F2
:10000000C038002045010008ED530008230A00080D
:10001000755300087D050008779F00080000000068
:10002000000000000000000000000000559B0008D8
:10003000DD070008000000000B050008419C0008D7
:100040005F0100085F0100085F0100085F01000810
:100050005F0100085F0100085F0100085F01000800
:100060005F0100085F0100085F0100085F010008F0
:100070005F0100085F0100085F0100085F010008E0
:100080005F0100085F0100085F0100085F010008D0
:100090005F0100085F0100085F0100085F010008C0
:1000A0005F0100085F0100085F0100085F010008B0
:1000B0005F0100085F0100085F0100085F010008A0
:1000C0005F0100085F0100085F0100085F01000890
:1000D0005F010008CD9C0008759D00085F010008C5
:1000E0005F0100085F0100085F0100085F01000870
:1000F0005F0100085F0100085F0100085F01000860
:100100005F0100085F0100085F0100085F0100084F
:100110005F0100085F0100085F0100085F0100083F
:100120005F0100085F0100085F0100085F0100082F
:10013000DFF80CD000F09AF90048004739AB00080E
:10014000C03800200648804706480047FEE7FEE723
:10015000FEE7FEE7FEE7FEE7FEE7FEE7FEE7FEE777
:100160006D9C00083101000872B6704762B6704796
:10017000EFF3108072B6704780F31088704730BF7D
:10018000704720BF7047B0FA80F0704790FAA0F037
:10019000B0FA80F0704790FAA0F0704740EA01038F
:1001A0009B0703D009E008C9121F08C0042AFAD22D
:1001B00003E011F8013B00F8013B521EF9D27047F1
:1001C000D2B201E000F8012B491EFBD27047002299
:1001D000F6E710B513460A4604461946FFF7F0FF46
:1001E000204610BD30B505462A460B4612F8010BD5
:1001F00013F8014B08B1A042F8D01CB1002802D07E
:100200006D1CF1E7284630BD421C10F8011B002987
:10021000FBD1801A70472DE9FE4F81EA030404F0F8
:10022000004421F0004100944FF0000B23F0004304
:1002300050EA01045ED052EA03045BD0C3F30A54CF
:10024000C1F30A552C44A4F2F3340194A0FB0254E8
:10025000C1F3130141F48011C3F3130343F480137A
:1002600001FB024400FB034E840A970A44EA8154CE
:1002700047EA8357A4FB076802958D0A05FB0785AB
:100280004FEA932C04FB0C542705029D4FEA0658B5
:1002900047EA1637B5EB08056EEB070C870E920E92
:1002A00047EA811742EA8312A7FB0201B6EB0B0172
:1002B00064EB00042B0D43EA0C335E1844EB1C5036
:1002C000DA465146E7FB0201C5F313044FEA0B334C
:1002D00043EA14534FEA0432019C43EA0603A4F1B3
:1002E0000C040294009CCDE900B400F070F803B057
:1002F000BDE8F08F00200146F9E70EB540F233412A
:1003000002910021CDE900110A460B4600F05FF88A
:1003100003B000BDC1F30A5210B5C1F3130140F29E
:10032000FF3341F480119A4201DA002010BD40F2FF
:1003300033439A42A2F2334203DC524200F028F8DF
:1003400010BD904010BD30B50B4601460020202264
:10035000012409E021FA02F59D4205D303FA02F5D2
:10036000491B04FA02F52844151EA2F10102F1DC32
:1003700030BD202A04DB203A00FA02F10020704749
:100380009140C2F1200320FA03F3194390407047D3
:10039000202A04DB203A21FA02F00021704721FADA
:1003A00002F3D040C2F12002914008431946704741
:1003B00010B5141E73F1000408DA401C41F100016D
:1003C00092185B411A4301D120F0010010BD2DE9C4
:1003D000F04D92469B4611B1B1FA81F202E0B0FABB
:1003E00080F220329046FFF7C4FF04460F4640EAF1
:1003F0000A0041EA0B0153465A46084313D01146FE
:1004000053EA010019D0C8F140025046FFF7C0FF7F
:1004100005460E46504659464246FFF7AAFF084396
:1004200005D0012004E020463946BDE8F08D0020CB
:10043000054346EAE0762C4337430A986305E40A0D
:10044000A0EB08000022FD0A44EA47540A3002D516
:1004500000200146E9E7010510196941DDE9084579
:1004600000196941BDE8F04DA2E70000064C074DB8
:1004700006E0E06840F0010394E807009847103474
:10048000AC42F6D3FFF758FEACC90008CCC900084F
:1004900070B58C1810F8015B15F0070301D110F846
:1004A000013B2A1106D110F8012B03E010F8016B73
:1004B00001F8016B5B1EF9D12B0705D40023521EF6
:1004C0000DD401F8013BFAE710F8013BCB1A921C5E
:1004D00003E013F8015B01F8015B521EF9D5A1425C
:1004E000D8D3002070BD000018484FF6FF7101708E
:1004F000002080F309881648016881F308881548B0
:100500004FF08051016062B6FEE772B6EFF30980EA
:1005100028B1203880E8F00F0F490968086000B55D
:100520000E4880475DF804EB0D480E490A780270CA
:1005300009480D490A680260106890E8F00F203001
:1005400080F309884EF0040E62B6704722ED00E099
:100550003001002004ED00E028010020356600088D
:10056000B6000020B70000202C01002000B585B0A7
:10057000684609F085FA019805B000BD00BFFEE7A6
:1005800010B500F0FBF800F003F800F0F3F810BD30
:1005900070B50026002018490880184908801849BD
:1005A0000860184908601849086018490860184927
:1005B0000860002400BFFFF7DBFD064600BF0025F2
:1005C0000BE000201049086000F074F800F08CF88F
:1005D0000D4800680444681C85B2002DF1D00C4819
:1005E00004600020084908600849086000BF3046E0
:1005F000FFF7C2FD00BF70BD440000204600002090
:10060000480000204C00002054000020580000202A
:100610005000002001460846044A1268904203D95F
:10062000024A1268801A00E0002070475000002043
:1006300070B5002500BFFFF79BFD054600BF0648CB
:10064000046800BF2846FFF797FD00BF2046FFF76C
:10065000E1FF0646304670BD5400002070B500250D
:10066000FFF7E6FF044600BFFFF782FD054600BF27
:1006700000200449086000BF2846FFF77DFD00BF49
:10068000204670BD5400002070B5002500BFFFF764
:100690006FFD054600BF0648046800BF2846FFF707
:1006A0006BFD00BF2046FFF7B5FF0646304670BD24
:1006B0005800002010B509480088401C07490880F0
:1006C0000748008818B900F083F806490860044814
:1006D0000088401C0249088010BD00004400002032
:1006E000460000204800002010B50F480088401E3A
:1006F0000D49088008460088A0B900F069F80B4948
:100700000860084600680A490968441A09480068F0
:10071000A04201D20748046007480068A04201D205
:100720000548046010BD0000460000204C00002079
:1007300048000020540000205800002010B500247C
:1007400000BF00BFFFF714FD044600BFFFF7B2FF74
:1007500000BF1021064804F00FFE00BFFFF7C4FFE2
:1007600000BF2046FFF708FD00BF00BF10BD00001E
:10077000FB03002010B5FFF7E1FF10BD10B500200E
:100780000249086000F00AF810BD00004000002097
:1007900001490860704700004000002010B5FFF7D5
:1007A000E5FE04460848006840F08070064908608D
:1007B0000020064948600846006840F001000860D3
:1007C0002046FFF7E5FF10BDFCED00E0001000E063
:1007D0000149486870470000001000E070470000C1
:1007E00051B18200A2F1C042126842F001038200BE
:1007F000A2F1C042136009E08200A2F1C042126877
:10080000034B1A408300A3F1C0431A6070470000F5
:10081000FEFF0F00D0E901121143C26811430269C3
:1008200011434269114382691143C2691143026A4B
:100830001143426A1143826A1143C26A1143026B37
:10084000114302689200A2F1C04211608168082938
:100850000BD101688900A1F1C041096841F0400253
:1008600001688900A1F1C0410A60416B0968426BCF
:10087000526841EA0211426B926841EA0221426BDE
:10088000928941EA0241426B128A41EA0251426B6B
:10089000127D41EA0261426B926911430268521C67
:1008A0009200A2F1C0421160C16AB1F5804F1BD124
:1008B000816B0968826B526841EA0211826B92680F
:1008C00041EA0221826B128A41EA0251826B127D57
:1008D00041EA0261826B9269114302689200A2F1BF
:1008E000C042C2F8041107E06FF07042016889004D
:1008F000A1F1C041C1F8042170472DE9F041024641
:1009000000250026002000230024002791F803C0C2
:100910000CF00F0591F803C00CF0100CBCF1000FA7
:1009200003D091F802C04CEA050591F800C0BCF173
:10093000000F31D0146800202BE04FF0010C0CFAAE
:1009400000F3B1F800C00CEA03069E4220D18300F8
:100950004FF00F0C0CFA03F7BC4305FA03FC4CEA0A
:10096000040491F803C0BCF1280F06D14FF0010C2C
:100970000CFA00FCC2F814C00AE091F803C0BCF104
:10098000480F05D14FF0010C0CFA00FCC2F810C062
:10099000401C0828D1D31460B1F800C0BCF1FF0F8F
:1009A00034DD546800202EE000F1080C4FF00108FF
:1009B00008FA0CF3B1F800C00CEA03069E4221D1FC
:1009C00083004FF00F0C0CFA03F7BC4305FA03FC4D
:1009D0004CEA040491F803C0BCF1280F05D100F1E2
:1009E000080C08FA0CF8C2F8148091F803C0BCF1A6
:1009F000480F07D100F1080C4FF0010808FA0CF875
:100A0000C2F81080401C0828CED35460BDE8F081A5
:100A10000246002093680B400BB1012000E000204B
:100A2000704700BFFEE7000070B504462B48808881
:100A300046F6122188421FD128484088401E83B2C2
:100A400026480088401E82B20021084604F0F2F9D0
:100A500000250CE0002604E0204604F059FC701C40
:100A600086B21E484088B042F6DC681C85B21B483E
:100A70000088A842EEDC2FE0002518480688408850
:100A800046431648808846F60401884216D113482A
:100A90008079012812D10020104988712A204881CC
:100AA0002B2088810021084604F0F0F801200B4932
:100AB00088712B2048812A20888103E00021084684
:100AC00004F0E4F804F034FC002502E0044804805B
:100AD0006D1CB542FAD300BF70BD00003801002084
:100AE0000008006C10B50446002C7DD18248808837
:100AF00046F61221884216D1012004F0FFFB4FF484
:100B0000807004F0F1FB032004F0F8FB41F23000A8
:100B100004F0EAFB002078498871F02008804FF447
:100B2000C8704880E3E07448808849F241318842C7
:100B30000BD07148808846F60401884205D06E4883
:100B4000808845F2103188421AD12C206A490881E8
:100B50002A2048812B2088810846808846F6040197
:100B6000884205D06448808845F210318842D9D146
:100B70004FF4A070604908804FF4F0704880B6E0F0
:100B80005D48808845F21051884210D14FF43050B2
:100B9000594908814FF4285048814FF42C508881DE
:100BA0004FF4F07008804FF4487048809FE052483E
:100BB000808841F6631188420ED12C204E4908816D
:100BC0002B2048812A2088814FF4F07008804FF450
:100BD000487048808BE007E02220474908812020A8
:100BE00048812120888182E00120434988714FF4A7
:100BF000C8700880F02048800846808846F6122198
:100C000088420DD1012004F079FB002004F06CFB38
:100C1000032004F073FB41F2380004F065FB53E05D
:100C20003548808849F24131884205D03248808871
:100C300045F21031884207D12C202F4908812A2003
:100C400048812B2088813FE02B48808846F60401AC
:100C5000884207D12C20284908812B2048812A204E
:100C6000888131E02448808845F21051884210D1B3
:100C70004FF43050204908814FF4285048814FF4F8
:100C80002C5088814FF4487008804FF4F0704880F1
:100C90001AE01948808841F6631188420DD12C2052
:100CA000154908812A2048812B2088814FF44870FB
:100CB00008804FF4F070488006E022200E49088139
:100CC00021204881202088810B48808846F6040135
:100CD000884205D00848808845F21031884206D104
:100CE0004FF4F070044908804FF4A0704880002051
:100CF00003F056FE10BD00003801002070B5044618
:100D00000D4616462B4622462946204604F092F808
:100D1000304604F0FDFA70BD70B504460D46164627
:100D20005A48808849F24131884205D05748808826
:100D300045F21031884214D15449488904F0DEFA52
:100D4000201204F0D1FAE0B204F0CEFA4F498889BB
:100D500004F0D4FA281204F0C7FAE8B204F0C4FA96
:100D60008CE04A48808845F21051884220D147499A
:100D7000488904F0C3FA201204F0B6FA43494989BD
:100D8000491C88B204F0BAFAE0B204F0ADFA3F4967
:100D9000888904F0B3FA281204F0A6FA3B4989893D
:100DA000491C88B204F0AAFAE8B204F09DFA65E0A2
:100DB0003648808841F66311884228D133488079CB
:100DC00020B932480088401E001B84B22F49488950
:100DD00004F094FA201204F087FAE0B204F084FAE6
:100DE000201204F081FAE0B204F07EFA27498889E3
:100DF00004F084FA281204F077FAE8B204F074FAE6
:100E0000281204F071FAE8B204F06EFA36E01F48D6
:100E1000808846F6040188421DD11C48807901284B
:100E200004D11A480088401E001B84B21749488923
:100E300004F064FA201204F057FAE0B204F054FA15
:100E40001249888904F05AFA281204F04DFAE8B2DF
:100E500004F04AFA12E00D488079012804D10B48C9
:100E60000088401E001B84B208494889214604F0CE
:100E70006FFA06498889294604F06AFA034800890E
:100E800003490880881C068070BD000038010020DE
:100E9000FE07006C00B59FB00121080208F0D0FDEC
:100EA00001214FF4B47008F0DBFD0120ADF87800AB
:100EB00010208DF87B0003208DF87A001EA9FE48D3
:100EC000FFF71BFD4CF23370ADF8780018208DF859
:100ED0007B0003208DF87A001EA9F848FFF70DFD6E
:100EE0004FF68070ADF8780018208DF87B00032055
:100EF0008DF87A001EA9F248FFF7FFFC41F20100CD
:100F0000ADF8780018208DF87B0003208DF87A006A
:100F10001EA9EC48FFF7F1FC012008900020099081
:100F20000F200A9000200B900C900D900E900190D5
:100F300002900320039000200490059006900790F3
:100F400006200F9000201090119010201290002089
:100F5000139015901490169017904FF4805018909D
:100F6000002019904FF480401A9000201B9008A890
:100F70001C9001A81D900FA8FFF74CFC0121062032
:100F8000FFF72EFC322009F087FA002003F0D2FC94
:100F9000CD49888008468088FF280ADB084680887B
:100FA0004FF6FF71884204D0C7488088B0F5134FD0
:100FB0007ED1D32004F0A2F903F0A2FCC2498880BC
:100FC00003F09EFCC049888003F09AFCBE498880EB
:100FD000084680884FF6FF7101EA0020BA498880F0
:100FE00003F08EFCB84989880843B74988800846D1
:100FF000808849F2413188425AD0BF2004F07EF9FE
:1010000003F07EFCB049888003F07AFCAE4988800A
:1010100003F076FCAC49888003F072FCAA49888012
:10102000084680884FF6FF7101EA0020A6498880B3
:1010300003F066FCA44989880843A34988800846D0
:10104000808846F6040188427AD0D42004F056F90C
:1010500003F056FC9C49888003F052FC9A49888032
:1010600003F04EFC98498880084680884FF6FF714F
:1010700001EA00209449888003F042FC9249898863
:101080000843914988800846808845F2103188429B
:1010900056D04FF45A4004F031F903F031FC8A493C
:1010A00088804FF45B4004F029F903F029FC00E04C
:1010B00046E085498880084680884FF6FF7101EA3E
:1010C0000020814988804FF45C4004F017F903F058
:1010D00017FC7D49898808437B49888008468088B9
:1010E000B0F5004F02D145F21050888076488088D4
:1010F00045F21051884223D0A12004F0FFF803F0FC
:10110000FFFB7149888003F0FBFB6F49888008462C
:1011100080884FF6FF7101EA00206B49888003F058
:10112000EFFB6949898808436749888008468088B9
:1011300045F26171884203D141F6631062498880AB
:101140006148808846F6122188427CD1002004F054
:10115000D5F8002004F0D2F80A2009F09DF900200B
:1011600004F0CCF8002004F0C9F8002004F0C6F820
:10117000002004F0C3F8A42004F0C0F8012004F01B
:10118000B3F80A2009F088F9602004F0B7F84FF4AA
:101190001C5004F0A9F8082004F0B0F840F608004C
:1011A00004F0A2F84FF4407004F0A8F840F20910DF
:1011B00004F09AF840F2013004F0A0F847F60A6013
:1011C00004F092F840F2023004F098F840F2047013
:1011D00004F08AF840F2033004F090F840F6111061
:1011E00004F082F84FF4417004F088F84FF4045092
:1011F00004F07AF840F2053004F080F841F209106A
:1012000004F072F840F2063004F078F847F2074034
:1012100004F06AF840F2073004F070F840F60E204F
:1012200004F062F84FF4427004F068F840F60110E0
:1012300004F05AF840F2093004F060F8212004F07C
:1012400053F8102000E010E104F058F8102004F0EA
:101250004BF8112004F052F840F2022004F044F858
:10126000122004F04BF84FF4407004F03DF81320C6
:1012700004F044F8072004F037F80A2009F00CF9CC
:101280004FF4807004F03AF8002004F02DF840F29A
:10129000011004F033F8072004F026F84FF48170B1
:1012A00004F02CF8002004F01FF840F2031004F0C2
:1012B00025F800200AE00000000C01400014014065
:1012C00000180140002001403801002004F00CF813
:1012D0004FF4207004F012F8002004F005F8C82044
:1012E00009F0DAF84FF4807004F008F84FF44C700D
:1012F00003F0FAFF40F2011004F000F840F247203A
:1013000003F0F2FF322009F0C7F84FF4817003F0C8
:10131000F5FF4DF2B01003F0E7FF322009F0BCF802
:1013200040F2031003F0EAFF4FF4805003F0DCFFBB
:101330004FF4207003F0E2FF4FF4464003F0D4FF77
:10134000C82009F0A9F8012003F0D8FF4FF48070FD
:1013500003F0CAFF022003F0D1FF4FF4007003F046
:10136000C3FF032003F0CAFF41F2300003F0BCFFCB
:10137000092003F0C3FF012003F0B6FF0A2003F0A9
:10138000BDFF082003F0B0FF0C2003F0B7FF0020E2
:1013900003F0AAFF0D2003F0B1FF002003F0A4FF2B
:1013A0000E2003F0ABFF302003F09EFF202003F05F
:1013B000A5FF002003F098FF212003F09FFF0020ED
:1013C00003F092FF292003F099FF522003F08CFFD5
:1013D000502003F093FF002003F086FF512003F01C
:1013E0008DFFEF2003F080FF522003F087FF0020E5
:1013F00003F07AFF532003F081FF40F23F1003F027
:1014000073FF612003F07AFF002003F06DFF6A2074
:1014100003F074FF002003F067FF802003F06EFFED
:10142000002003F061FF812003F068FF002003F03B
:101430005BFF822003F062FF5F2003F055FF9320E3
:1014400003F05CFF40F2075003F04EFF072003F06B
:1014500055FF4FF4807003F047FF322009F01CF86D
:10146000222003F04BFF03F03ABAFE48808849F28D
:10147000413188427ED1CF2003F040FF002003F0AD
:1014800033FFC12003F030FF302003F02DFFED20AB
:1014900003F034FF642003F027FF032003F024FF50
:1014A000122003F021FF812003F01EFFE82003F04B
:1014B00025FF852003F018FF102003F015FF7A2088
:1014C00003F012FFCB2003F019FF392003F00CFFCB
:1014D0002C2003F009FF002003F006FF342003F066
:1014E00003FF022003F000FFF72003F007FF202096
:1014F00003F0FAFEEA2003F001FF002003F0F4FEFF
:10150000002003F0F1FEC02003F0F8FE1B2003F0E2
:10151000EBFEC12003F0F2FE012003F0E5FEC52042
:1015200003F0ECFE302003F0DFFE302003F0DCFEA1
:10153000C72003F0E3FEB72003F0D6FE362003F009
:10154000DDFE482003F0D0FE3A2003F0D7FE552000
:1015500003F0CAFEB12003F0D1FE002003F0C4FE68
:101560001A2003F0C1FEB62003F0C8FE0A2003F0E3
:10157000BBFE00E096E0A22003F0B6FEF22003F0EE
:10158000BDFE002003F0B0FE262003F0B7FE0120D0
:1015900003F0AAFEE02003F0B1FE0F2003F0A4FE4A
:1015A0002A2003F0A1FE282003F09EFE082003F06D
:1015B0009BFE0E2003F098FE082003F095FE5420B9
:1015C00003F092FEA92003F08FFE432003F08CFE6F
:1015D0000A2003F089FE0F2003F086FE002003F0AE
:1015E00083FE002003F080FE002003F07DFE00203B
:1015F00003F07AFEE12003F081FE002003F074FE88
:10160000152003F071FE172003F06EFE072003F093
:101610006BFE112003F068FE062003F065FE2B2010
:1016200003F062FE562003F05FFE3C2003F05CFEF8
:10163000052003F059FE102003F056FE0F2003F0A2
:1016400053FE3F2003F050FE3F2003F04DFE0F20DD
:1016500003F04AFE2B2003F051FE002003F044FE6D
:10166000002003F041FE012003F03EFE3F2003F086
:101670003BFE2A2003F042FE002003F035FE00204E
:1016800003F032FE002003F02FFEEF2003F02CFECB
:10169000112003F033FE782008F0FEFE292003F02D
:1016A0002DFEE0E66F48808846F6040188427CD132
:1016B000112003F023FE142008F0EEFED02003F0EA
:1016C0001DFE072003F010FE422003F00DFE1D203A
:1016D00003F00AFED12003F011FE002003F004FE07
:1016E0001A2003F001FE092003F0FEFDD22003F0D2
:1016F00005FE012003F0F8FD222003F0F5FDC020D7
:1017000003F0FCFD102003F0EFFD3B2003F0ECFDA7
:10171000002003F0E9FD022003F0E6FD112003F0B4
:10172000E3FDC52003F0EAFD032003F0DDFDC82042
:1017300003F0E4FD002003F0D7FD252003F0D4FDE5
:10174000212003F0D1FD052003F0CEFD002003F0A1
:10175000CBFD0A2003F0C8FD652003F0C5FD252060
:1017600003F0C2FD772003F0BFFD502003F0BCFD65
:101770000F2003F0B9FD002003F0B6FDF82003F0C0
:10178000BDFD012003F0B0FDFE2003F0B7FD0020F9
:1017900003F0AAFD022003F0A7FD202003F0AEFD18
:1017A000362003F0ABFD082000E02CE003F09CFDA8
:1017B0003A2003F0A3FD552003F096FD2B2003F003
:1017C0009DFD002003F090FD002003F08DFD012021
:1017D00003F08AFD3F2003F087FD2A2003F08EFDF1
:1017E000002003F081FD002003F07EFD012003F0C6
:1017F0007BFDDF2003F078FD782008F04DFE2920E6
:1018000003F07CFD2FE61748808845F210318842AE
:1018100040F07C87ED2003F071FD012003F064FDB2
:10182000FE2003F061FDEE2003F068FDDE2003F0F2
:101830005BFD212003F058FDF12003F05FFD012046
:1018400003F052FDDF2003F059FD102003F04CFDA2
:10185000C42003F053FD8F2003F046FDC62003F0A3
:101860004DFD01E038010020002003F03DFDE220A5
:1018700003F03AFDE22003F037FDE22003F034FDEF
:10188000BF2003F03BFDAA2003F02EFDB02003F0A3
:1018900035FD0D2003F028FD002003F025FD0D206F
:1018A00003F022FD002003F01FFD112003F01CFDBA
:1018B000002003F019FD192003F016FD002003F0AD
:1018C00013FD212003F010FD002003F00DFD2D205D
:1018D00003F00AFD002003F007FD3D2003F004FDA6
:1018E000002003F001FD5D2003F0FEFC002003F06A
:1018F000FBFC5D2003F0F8FC002003F0F5FCB120B8
:1019000003F0FCFC802003F0EFFC002003F0ECFC73
:101910008B2003F0E9FC002003F0E6FC962003F0A6
:10192000E3FC002003F0E0FCB22003F0E7FC002021
:1019300003F0DAFC002003F0D7FC022003F0D4FC13
:10194000002003F0D1FC032003F0CEFC002003F0C4
:10195000CBFCB32003F0D2FC002003F0C5FC002038
:1019600003F0C2FC002003F0BFFC002003F0BCFC2D
:10197000002003F0B9FC002003F0B6FC002003F0C7
:10198000B3FC002003F0B0FC002003F0ADFC00200D
:1019900003F0AAFC002003F0A7FC002003F0A4FC45
:1019A000002003F0A1FC002003F09EFC002003F0C7
:1019B0009BFC002003F098FC002003F095FC002025
:1019C00003F092FC002003F08FFC002003F08CFC5D
:1019D000002003F089FC002003F086FC002003F0C7
:1019E00083FC002003F080FCB42003F087FC8B20F4
:1019F00003F07AFC002003F077FC962003F074FCDF
:101A0000002003F071FCA12003F06EFC002003F025
:101A10006BFCB52003F072FC022003F065FC002093
:101A200003F062FC032003F05FFC002003F05CFC89
:101A3000042003F059FC002003F056FCB62003F00C
:101A40005DFC002003F050FC002003F04DFCB720AB
:101A500003F054FC002003F047FC002003F044FC9A
:101A60003F2003F041FC002003F03EFC5E2003F029
:101A70003BFC002003F038FC642003F035FC002020
:101A800003F032FC8C2003F02FFC002003F02CFC30
:101A9000AC2003F029FC002003F026FCDC2003F03E
:101AA00023FC002003F020FC702003F01DFC00202C
:101AB00003F01AFC902003F017FC002003F014FC44
:101AC000EB2003F011FC002003F00EFCDC2003F0FF
:101AD0000BFC002003F008FCB82003F00FFC0020F2
:101AE00003F002FC002003F0FFFB002003F0FCFBEE
:101AF000002003F0F9FB002003F0F6FB002003F0C8
:101B0000F3FB002003F0F0FB002003F0EDFBBA2014
:101B100003F0F4FB242003F0E7FB002003F0E4FBD8
:101B2000002003F0E1FB002003F0DEFBC12003F006
:101B3000E5FB202003F0D8FB002003F0D5FB542068
:101B400003F0D2FB002003F0CFFBFF2003F0CCFB1F
:101B5000002003F0C9FBC22003F0D0FB0A2003F0F1
:101B6000C3FB002003F0C0FB042003F0BDFB0020FA
:101B700003F0BAFBC32003F0C1FB3C2003F0B4FB2D
:101B8000002003F0B1FB3A2003F0AEFB002003F08D
:101B9000ABFB392003F0A8FB002003F0A5FB3720A6
:101BA00003F0A2FB002003F09FFB3C2003F09CFB12
:101BB000002003F099FB362003F096FB002003F091
:101BC00093FB322003F090FB002003F08DFB2F20CD
:101BD00003F08AFB002003F087FB2C2003F084FB3A
:101BE000002003F081FB292003F07EFB002003F09E
:101BF0007BFB262003F078FB002003F075FB2420FC
:101C000003F072FB002003F06FFB242003F06CFB59
:101C1000002003F069FB232003F066FB002003F0A3
:101C200063FB3C2003F060FB002003F05DFB3620EB
:101C300003F05AFB002003F057FB322003F054FB63
:101C4000002003F051FB2F2003F04EFB002003F097
:101C50004BFB2C2003F048FB002003F045FB292020
:101C600003F042FB002003F03FFB262003F03CFB87
:101C7000002003F039FB242003F036FB002003F0A2
:101C800033FB242003F030FB002003F02DFB232046
:101C900003F02AFB002003F027FBC42003F02EFBF7
:101CA000622003F021FB002003F01EFB052003F05F
:101CB0001BFB002003F018FB842003F015FB002021
:101CC00003F012FBF02003F00FFB002003F00CFBED
:101CD000182003F009FB002003F006FBA42003F00A
:101CE00003FB002003F000FB182003F0FDFA0020A6
:101CF00003F0FAFA502003F0F7FA002003F0F4FAA8
:101D00000C2003F0F1FA002003F0EEFA172003F0A4
:101D1000EBFA002003F0E8FA952003F0E5FA002042
:101D200003F0E2FAF32003F0DFFA002003F0DCFA1C
:101D3000E62003F0D9FA002003F0D6FAC52003F01C
:101D4000DDFA322003F0D0FA002003F0CDFA44206F
:101D500003F0CAFA002003F0C7FA652003F0C4FAC2
:101D6000002003F0C1FA762003F0BEFA002003F051
:101D7000BBFA882003F0B8FA002003F0B5FAC620B9
:101D800003F0BCFA202003F0AFFA002003F0ACFA15
:101D9000172003F0A9FA002003F0A6FA012003F0AF
:101DA000A3FA002003F0A0FAC72003F0A7FA00204E
:101DB00003F09AFA002003F097FA002003F094FA57
:101DC000002003F091FAC82003F098FA002003F0F5
:101DD0008BFA002003F088FA002003F085FA002037
:101DE00003F082FAC92003F089FA002003F07CFA9C
:101DF000002003F079FA002003F076FA002003F0C7
:101E000073FA002003F070FA002003F06DFA00204E
:101E100003F06AFA002003F067FA002003F064FA86
:101E2000002003F061FA002003F05EFA002003F0C6
:101E30005BFA002003F058FA002003F055FA002066
:101E400003F052FA002003F04FFAE02003F056FAB4
:101E5000162003F049FA002003F046FA1C2003F094
:101E600043FA002003F040FA212003F03DFA00205D
:101E700003F03AFA362003F037FA002003F034FA80
:101E8000462003F031FA002003F02EFA522003F02E
:101E90002BFA002003F028FA642003F025FA002032
:101EA00003F022FA7A2003F01FFA002003F01CFA54
:101EB0008B2003F019FA002003F016FA992003F0A2
:101EC00013FA002003F010FAA82003F00DFA002006
:101ED00003F00AFAB92003F007FA002003F004FA2D
:101EE000C42003F001FA002003F0FEF9CA2003F039
:101EF000FBF9002003F0F8F9D22003F0F5F90020F7
:101F000003F0F2F9D92003F0EFF9002003F0ECF927
:101F1000E02003F0E9F9002003F0E6F9F32003F0F4
:101F2000E3F9002003F0E0F9E12003F0E7F91620DF
:101F300003F0DAF9002003F0D7F91C2003F0D4F9FC
:101F4000002003F0D1F9222003F0CEF9002003F0A5
:101F5000CBF9362003F0C8F9002003F0C5F945207D
:101F600003F0C2F9002003F0BFF9522003F0BCF9DE
:101F7000002003F0B9F9642003F0B6F9002003F063
:101F8000B3F97A2003F0B0F9002003F0ADF98B200B
:101F900003F0AAF9002003F0A7F9992003F0A4F9AF
:101FA000002003F0A1F9A82003F09EF9002003F01F
:101FB0009BF9B92003F098F9002003F095F9C420AB
:101FC00003F092F9002003F08FF9CA2003F08CF996
:101FD000002003F089F9D22003F086F9002003F0F5
:101FE00083F9D82003F080F9002003F07DF9E02088
:101FF00003F07AF9002003F077F9F32003F074F985
:10200000002003F071F9E22003F078F9052003F0D5
:102010006BF9002003F068F90B2003F065F900204C
:1020200003F062F91B2003F05FF9002003F05CF974
:10203000342003F059F9002003F056F9442003F04E
:1020400053F9002003F050F94F2003F04DF9002020
:1020500003F04AF9612003F047F9002003F044F946
:10206000792003F041F9002003F03EF9882003F0C5
:102070003BF9002003F038F9972003F035F90020F0
:1020800003F032F9A62003F02FF9002003F02CF919
:10209000B72003F029F9002003F026F9C22003F04D
:1020A00023F9002003F020F9C72003F01DF90020D8
:1020B00003F01AF9D12003F017F9002003F014F906
:1020C000D62003F011F9002003F00EF9DD2003F013
:1020D0000BF9002003F008F9F32003F005F90020C4
:1020E00003F002F9E32003F009F9052003F0FCF8FE
:1020F000002003F0F9F80A2003F0F6F8002003F0BE
:10210000F3F81C2003F0F0F8002003F0EDF8332082
:1021100003F0EAF8002003F0E7F8442003F0E4F8C5
:10212000002003F0E1F8502003F0DEF8002003F077
:10213000DBF8622003F0D8F8002003F0D5F878200F
:1021400003F0D2F8002003F0CFF8882003F0CCF899
:10215000002003F0C9F8972003F0C6F8002003F030
:10216000C3F8A62003F0C0F8002003F0BDF8B720A4
:1021700003F0BAF8002003F0B7F8C22003F0B4F877
:10218000002003F0B1F8C72003F0AEF8002003F000
:10219000ABF8D12003F0A8F8002003F0A5F8D52073
:1021A00003F0A2F8002003F09FF8DD2003F09CF874
:1021B000002003F099F8F32003F096F8002003F0D4
:1021C00093F8E42003F09AF8012003F08DF8002042
:1021D00003F08AF8012003F087F8002003F084F868
:1021E000022003F081F8002003F07EF82A2003F09B
:1021F0007BF8002003F078F83C2003F075F800200D
:1022000003F072F84B2003F06FF8002003F06CF835
:102210005D2003F069F8002003F066F8742003F0F5
:1022200063F8002003F060F8842003F05DF80020DC
:1022300003F05AF8932003F057F8002003F054F805
:10224000A22003F051F8002003F04EF8B32003F071
:102250004BF8002003F048F8BE2003F045F80020BA
:1022600003F042F8C42003F03FF8002003F03CF8EC
:10227000CD2003F039F8002003F036F8D32003F026
:1022800033F8002003F030F8DD2003F02DF80020B3
:1022900003F02AF8F32003F027F8002003F024F8D5
:1022A000E52003F02BF8002003F01EF8002003F0D7
:1022B0001BF8002003F018F8002003F015F80220A6
:1022C00003F012F8002003F00FF8292003F00CF8B7
:1022D000002003F009F83C2003F006F8002003F08A
:1022E00003F84B2003F000F8002002F0FDFF5D2012
:1022F00002F0FAFF002002F0F7FF742002F0F4FF72
:10230000002002F0F1FF842002F0EEFF002002F036
:10231000EBFF932002F0E8FF002002F0E5FFA2208F
:1023200002F0E2FF002002F0DFFFB32002F0DCFF4A
:10233000002002F0D9FFBE2002F0D6FF002002F0FC
:10234000D3FFC42002F0D0FF002002F0CDFFCD204B
:1023500002F0CAFF002002F0C7FFD32002F0C4FF42
:10236000002002F0C1FFDC2002F0BEFF002002F0DE
:10237000BBFFF32002F0B8FF002002F0B5FFE6201B
:1023800002F0BCFF112002F0AFFF002002F0ACFF12
:10239000342002F0A9FF002002F0A6FF562002F030
:1023A000A3FF002002F0A0FF762002F09DFF002096
:1023B00002F09AFF772002F097FF002002F094FFCE
:1023C000662002F091FF002002F08EFF882002F0CC
:1023D0008BFF002002F088FF992002F085FF00208B
:1023E00002F082FFBB2002F07FFF002002F07CFFA2
:1023F000992002F079FF002002F076FF662002F0BB
:1024000073FF002002F070FF552002F06DFF0020E6
:1024100002F06AFF552002F067FF002002F064FF1F
:10242000452002F061FF002002F05EFF432002F031
:102430005BFF002002F058FF442002F055FF00200F
:1024400002F052FFE72002F059FF322002F04CFF69
:10245000002002F049FF552002F046FF002002F064
:1024600043FF762002F040FF002002F03DFF66208F
:1024700002F03AFF002002F037FF672002F034FF3D
:10248000002002F031FF672002F02EFF002002F052
:102490002BFF872002F028FF002002F025FF992063
:1024A00002F022FF002002F01FFFBB2002F01CFF01
:1024B000002002F019FF992002F016FF002002F020
:1024C00013FF772002F010FF002002F00DFF4420E0
:1024D00002F00AFF002002F007FF562002F004FF7E
:1024E000002002F001FF232002F0FEFE002002F097
:1024F000FBFE332002F0F8FE002002F0F5FE45203E
:1025000002F0F2FE002002F0EFFEE82002F0F6FEFC
:10251000002002F0E9FE002002F0E6FE992002F021
:10252000E3FE002002F0E0FE872002F0DDFE002046
:1025300002F0DAFE882002F0D7FE002002F0D4FE7E
:10254000772002F0D1FE002002F0CEFE662002F0DD
:10255000CBFE002002F0C8FE882002F0C5FE00205D
:1025600002F0C2FEAA2002F0BFFE002002F0BCFE74
:10257000BB2002F0B9FE002002F0B6FE992002F066
:10258000B3FE002002F0B0FE662002F0ADFE002097
:1025900002F0AAFE552002F0A7FE002002F0A4FEE1
:1025A000552002F0A1FE002002F09EFE442002F021
:1025B0009BFE002002F098FE442002F095FE0020D1
:1025C00002F092FE552002F08FFE002002F08CFEF9
:1025D000E92002F093FEAA2002F086FE002002F01D
:1025E00083FE002002F080FE002002F07DFE00202D
:1025F00002F084FEAA2002F077FECF2002F07EFED9
:10260000002002F071FE002002F06EFE002002F0B9
:102610006BFE002002F068FE002002F065FE002044
:1026200002F062FE002002F05FFE002002F05CFE7D
:10263000002002F059FE002002F056FE002002F0B9
:1026400053FE002002F050FE002002F04DFE00205C
:1026500002F04AFE002002F047FE002002F044FE95
:10266000002002F041FEF02002F048FE002002F0BF
:102670003BFE502002F038FE002002F035FE002024
:1026800002F032FE002002F02FFEF32002F036FEB0
:10269000002002F029FEF92002F030FE062002F0B0
:1026A00023FE102002F020FE292002F01DFE002053
:1026B00002F01AFE3A2002F021FE552002F014FE2C
:1026C000112002F01BFE642007F0E6FE292002F034
:1026D00015FE352002F012FE002002F005FE51200A
:1026E00002F00CFEFF2002F0FFFD532002F006FE78
:1026F0002C2002F0F9FD552002F000FE822002F0AD
:10270000F3FD2C2002F0FAFD02F0E9B8FE488088C3
:1027100045F2105188427DD155214FF4704002F0AE
:1027200017FEAA214FF2010002F012FE52214FF2D1
:10273000020002F00DFE08214FF2030002F008FE35
:1027400001214FF2040002F003FE0D214FF430404E
:1027500002F0FEFD0D214BF2010002F0F9FD0D210A
:102760004BF2020002F0F4FD34214FF4364002F047
:10277000EFFD34214BF2016002F0EAFD34214BF20F
:10278000026002F0E5FD0D214FF4314002F0E0FD62
:102790000D214BF2011002F0DBFD0D214BF2021076
:1027A00002F0D6FD34214FF4374002F0D1FD342140
:1027B0004BF2017002F0CCFD34214BF2027002F0BA
:1027C000C7FD00214FF4324002F0C2FD00214BF260
:1027D000012002F0BDFD00214BF2022002F0B8FD05
:1027E00024214FF4384002F0B3FD24214BF60100C0
:1027F00002F0AEFD24214BF6020002F0A9FD0121FA
:102800004FF43F4002F0A4FD0F214FF4334002F09B
:102810009FFD00E0FDE30F214BF2013002F098FD37
:102820000F214BF2023002F093FD34214FF4394076
:1028300002F08EFD34214BF6011002F089FD3421A7
:102840004BF6021002F084FD08214FF4354002F0EF
:102850007FFD08214BF2015002F07AFD08214BF276
:10286000025002F075FD03214FF4424002F070FD6A
:1028700024214FF43A4002F06BFD24214BF6012055
:1028800002F066FD24214BF6022002F061FD0021DA
:102890004FF43C4002F05CFD78214BF6014002F021
:1028A00057FD00214BF6024002F052FD00214FF48B
:1028B0003D4002F04DFD78214BF6015002F048FDFD
:1028C00000214BF6025002F043FD00214FF43E4040
:1028D00002F03EFD64214BF6016002F039FD00215B
:1028E0004FF4514002F034FD33214DF2011002F05B
:1028F0002FFD00214DF2021002F02AFD34214DF28D
:10290000031002F025FD00214DF2041002F020FD1D
:102910003A214DF2051002F01BFD00214DF2061088
:1029200002F016FD4A214DF2071002F011FD0021C0
:102930004DF2081002F00CFD5C214DF2091002F07E
:1029400007FD00214DF20A1002F002FD81214DF237
:102950000B1002F0FDFC00214DF20C1002F0F8FC0F
:10296000A6214DF20D1002F0F3FC00214DF20E10E5
:1029700002F0EEFCE5214DF20F1002F0E9FC01211E
:102980004DF2101002F0E4FC13214DF2111002F090
:10299000DFFC01214DF2121002F0DAFC54214DF25D
:1029A000131002F0D5FC01214DF2141002F0D0FCFE
:1029B00082214DF2151002F0CBFC01214DF21610D0
:1029C00002F0C6FCCA214DF2171002F0C1FC022130
:1029D0004DF2181002F0BCFC00214DF2191002F06B
:1029E000B7FC02214DF21A1002F0B2FC01214DF2A7
:1029F0001B1002F0ADFC02214DF21C1002F0A8FCED
:102A000034214DF21D1002F0A3FC02214DF21E10E4
:102A100002F09EFC67214DF21F1002F099FC02218A
:102A20004DF2201002F094FC84214DF2211002F0AE
:102A30008FFC02214DF2221002F08AFCA4214DF2FB
:102A4000231002F085FC02214DF2241002F080FCDC
:102A5000B7214DF2251002F07BFC02214DF2261029
:102A600002F076FCCF214DF2271002F071FC02211A
:102A70004DF2281002F06CFCDE214DF2291002F01C
:102A800067FC02214DF22A1002F062FCF2214DF2A5
:102A90002B1002F05DFC02214DF22C1002F058FCCC
:102AA000FE214DF22D1002F053FC03214DF22E10A9
:102AB00002F04EFC10214DF22F1002F049FC0321D0
:102AC0004DF2301002F044FC33214DF2311002F08F
:102AD0003FFC03214DF2321002F03AFC6D214DF221
:102AE000331002F035FC00214FF4524002F030FC6C
:102AF00033214DF2012002F02BFC00214DF2022087
:102B000002F026FC342101E0380100204DF20320C0
:102B100002F01EFC00214DF2042002F019FC3A21C3
:102B20004DF2052002F014FC00214DF2062002F0C7
:102B30000FFC4A214DF2072002F00AFC00214DF261
:102B4000082002F005FC5C214DF2092002F000FC97
:102B500000214DF20A2002F0FBFB81214DF20B20F7
:102B600002F0F6FB00214DF20C2002F0F1FBA62151
:102B70004DF20D2002F0ECFB00214DF20E2002F090
:102B8000E7FBE5214DF20F2002F0E2FB01214DF2BF
:102B9000102002F0DDFB13214DF2112002F0D8FBD2
:102BA00001214DF2122002F0D3FB54214DF21320EB
:102BB00002F0CEFB01214DF2142002F0C9FB82216C
:102BC0004DF2152002F0C4FB01214DF2162002F057
:102BD000BFFBCA214DF2172002F0BAFB02214DF2D1
:102BE000182002F0B5FB00214DF2192002F0B0FBD5
:102BF00002214DF21A2002F0ABFB01214DF21B2005
:102C000002F0A6FB02214DF21C2002F0A1FB3421B0
:102C10004DF21D2002F09CFB02214DF21E2002F01D
:102C200097FB67214DF21F2002F092FB02214DF22B
:102C3000202002F08DFB84214DF2212002F088FB40
:102C400002214DF2222002F083FBA4214DF2232029
:102C500002F07EFB02214DF2242002F079FBB72125
:102C60004DF2252002F074FB02214DF2262002F0E5
:102C70006FFBCF214DF2272002F06AFB02214DF2BB
:102C8000282002F065FBDE214DF2292002F060FBD6
:102C900002214DF22A2002F05BFBF2214DF22B20A3
:102CA00002F056FB02214DF22C2002F051FBFE21D6
:102CB0004DF22D2002F04CFB03214DF22E2002F0AC
:102CC00047FB10214DF22F2002F042FB03214DF271
:102CD000302002F03DFB33214DF2312002F038FB71
:102CE00003214DF2322002F033FB6D214DF23320EF
:102CF00002F02EFB00214FF4534002F029FB332158
:102D00004DF2013002F024FB00214DF2023002F0BE
:102D10001FFB34214DF2033002F01AFB00214DF26B
:102D2000043002F015FB3A214DF2053002F010FBA1
:102D300000214DF2063002F00BFB4A214DF2073024
:102D400002F006FB00214DF2083002F001FB5C218D
:102D50004DF2093002F0FCFA00214DF20A3002F087
:102D6000F7FA81214DF20B3002F0F2FA00214DF218
:102D70000C3002F0EDFAA6214DF20D3002F0E8FA27
:102D800000214DF20E3002F0E3FAE5214DF20F3052
:102D900002F0DEFA01214DF2103002F0D9FA1321CF
:102DA0004DF2113002F0D4FA01214DF2123002F04E
:102DB000CFFA54214DF2133002F0CAFA01214DF23C
:102DC000143002F0C5FA82214DF2153002F0C0FA3B
:102DD00001214DF2163002F0BBFACA214DF2173034
:102DE00002F0B6FA02214DF2183002F0B1FA0021D9
:102DF0004DF2193002F0ACFA02214DF21A3002F015
:102E0000A7FA01214DF21B3002F0A2FA02214DF285
:102E10001C3002F09DFA34214DF21D3002F098FA78
:102E200002214DF21E3002F093FA67214DF21F305D
:102E300002F08EFA02214DF2203002F089FA84214C
:102E40004DF2213002F084FA02214DF2223002F0DC
:102E50007FFAA4214DF2233002F07AFA02214DF2DA
:102E6000243002F075FAB7214DF2253002F070FAE5
:102E700002214DF2263002F06BFACF214DF22730BD
:102E800002F066FA02214DF2283002F061FADE21EA
:102E90004DF2293002F05CFA02214DF22A3002F0A4
:102EA00057FAF2214DF22B3002F052FA02214DF284
:102EB0002C3002F04DFAFE214DF22D3002F048FA8E
:102EC00003214DF22E3002F043FA10214DF22F3043
:102ED00002F03EFA03214DF2303002F039FA33218C
:102EE0004DF2313002F034FA03214DF2323002F06B
:102EF0002FFA6D214DF2333002F02AFA00214FF4FF
:102F0000544002F025FA33214DF2014002F020FA3C
:102F100000214DF2024002F01BFA34214DF2034031
:102F200002F016FA00214DF2044002F011FA3A21A3
:102F30004DF2054002F00CFA00214DF2064002F07D
:102F400007FA4A214DF2074002F002FA00214DF241
:102F5000084002F0FDF95C214DF2094002F0F8F959
:102F600000214DF20A4002F0F3F981214DF20B40AD
:102F700002F0EEF900214DF20C4002F0E9F9A62131
:102F80004DF20D4002F0E4F900214DF20E4002F046
:102F9000DFF9E5214DF20F4002F0DAF901214DF29F
:102FA000104002F0D5F913214DF2114002F0D0F992
:102FB00001214DF2124002F0CBF954214DF21340A1
:102FC00002F0C6F901214DF2144002F0C1F982214C
:102FD0004DF2154002F0BCF901214DF2164002F00D
:102FE000B7F9CA214DF2174002F0B2F902214DF2B1
:102FF000184002F0ADF900214DF2194002F0A8F995
:1030000002214DF21A4002F0A3F901214DF21B40BA
:1030100000E006E302F09CF902214DF21C4002F0B0
:1030200097F934214DF21D4002F092F902214DF240
:103030001E4002F08DF967214DF21F4002F088F921
:1030400002214DF2204002F083F984214DF221400B
:1030500002F07EF902214DF2224002F079F9A4211A
:103060004DF2234002F074F902214DF2244002F0A7
:103070006FF9B7214DF2254002F06AF902214DF2B5
:10308000264002F065F9CF214DF2274002F060F9A9
:1030900002214DF2284002F05BF9DE214DF2294079
:1030A00002F056F902214DF22A4002F051F9F221C4
:1030B0004DF22B4002F04CF902214DF22C4002F06F
:1030C00047F9FE214DF22D4002F042F903214DF265
:1030D0002E4002F03DF910214DF22F4002F038F958
:1030E00003214DF2304002F033F933214DF23140EB
:1030F00002F02EF903214DF2324002F029F96D2140
:103100004DF2334002F024F900214FF4554002F013
:103110001FF933214DF2015002F01AF900214DF24E
:10312000025002F015F934214DF2035002F010F96B
:1031300000214DF2045002F00BF93A214DF20550F6
:1031400002F006F900214DF2065002F001F94A2181
:103150004DF2075002F0FCF800214DF2085002F049
:10316000F7F85C214DF2095002F0F2F800214DF21F
:103170000A5002F0EDF881214DF20B5002F0E8F810
:1031800000214DF20C5002F0E3F8A6214DF20D5053
:1031900002F0DEF800214DF20E5002F0D9F8E521E0
:1031A0004DF20F5002F0D4F801214DF2105002F010
:1031B000CFF813214DF2115002F0CAF801214DF25F
:1031C000125002F0C5F854214DF2135002F0C0F82D
:1031D00001214DF2145002F0BBF882214DF215503E
:1031E00002F0B6F801214DF2165002F0B1F8CA21F2
:1031F0004DF2175002F0ACF802214DF2185002F0D7
:10320000A7F800214DF2195002F0A2F802214DF268
:103210001A5002F09DF801214DF21B5002F098F86F
:1032200002214DF21C5002F093F834214DF21D5052
:1032300002F08EF802214DF21E5002F089F867214B
:103240004DF21F5002F084F802214DF2205002F09E
:103250007FF884214DF2215002F07AF802214DF2DC
:10326000225002F075F8A4214DF2235002F070F8BC
:1032700002214DF2245002F06BF8B7214DF2255097
:1032800002F066F802214DF2265002F061F8CF21DB
:103290004DF2275002F05CF802214DF2285002F066
:1032A00057F8DE214DF2295002F052F802214DF27A
:1032B0002A5002F04DF8F2214DF22B5002F048F85E
:1032C00002214DF22C5002F043F8FE214DF22D5018
:1032D00002F03EF803214DF22E5002F039F8102191
:1032E0004DF22F5002F034F803214DF2305002F02D
:1032F0002FF833214DF2315002F02AF803214DF21C
:10330000325002F025F86D214DF2335002F020F8D2
:1033100000214FF4564002F01BF833214DF20160BA
:1033200002F016F800214DF2026002F011F834218B
:103330004DF2036002F00CF800214DF2046002F03F
:1033400007F83A214DF2056002F002F800214DF233
:10335000066001F0FDFF4A214DF2076001F0F8FF21
:1033600000214DF2086001F0F3FF5C214DF209608D
:1033700001F0EEFF00214DF20A6001F0E9FF81212A
:103380004DF20B6001F0E4FF00214DF20C6001F002
:10339000DFFFA6214DF20D6001F0DAFF00214DF2B2
:1033A0000E6001F0D5FFE5214DF20F6001F0D0FF76
:1033B00001214DF2106001F0CBFF13214DF211609D
:1033C00001F0C6FF01214DF2126001F0C1FF54214E
:1033D0004DF2136001F0BCFF01214DF2146001F0C9
:1033E000B7FF82214DF2156001F0B2FF01214DF2CD
:1033F000166001F0ADFFCA214DF2176001F0A8FF81
:1034000002214DF2186001F0A3FF00214DF2196076
:1034100001F09EFF02214DF21A6001F099FF012197
:103420004DF21B6001F094FF02214DF21C6001F08F
:103430008FFF34214DF21D6001F08AFF02214DF211
:103440001E6001F085FF67214DF21F6001F080FFD3
:1034500002214DF2206001F07BFF84214DF22160BA
:1034600001F076FF02214DF2226001F071FFA421EC
:103470004DF2236001F06CFF02214DF2246001F057
:1034800067FFB7214DF2256001F062FF02214DF286
:10349000266001F05DFFCF214DF2276001F058FF5B
:1034A00002214DF2286001F053FFDE214DF2296028
:1034B00001F04EFF02214DF22A6001F049FFF22196
:1034C0004DF22B6001F044FF02214DF22C6001F01F
:1034D0003FFFFE214DF22D6001F03AFF03214DF236
:1034E0002E6001F035FF10214DF22F6001F030FF0A
:1034F00003214DF2306001F02BFF33214DF231609A
:1035000001F026FF03214DF2326001F021FF6D2111
:103510004DF2336001F01CFF55214FF4704001F073
:1035200017FFAA214FF2010001F012FF52214FF2C2
:10353000020001F00DFF08214FF2030001F008FF27
:1035400000214FF2040001F003FFCC214FF4314081
:1035500001F0FEFE00214BF2011001F0F9FE052101
:103560004FF4364001F0F4FE70214FF4374001F083
:10357000EFFE70214BF2017001F0EAFE01214FF4E1
:10358000384001F0E5FE03214BF6010001F0E0FEBA
:1035900003214BF6020001F0DBFE03214BF6030092
:1035A00001F0D6FE02214FF43C4001F0D1FE002193
:1035B0004BF6014001F0CCFE00214BF6024001F039
:1035C000C7FED0214FF4494001F0C2FE02214CF663
:1035D000011001F0BDFE50214CF6021001F0B8FEC2
:1035E00050214CF6031001F0B3FE50214CF60410AC
:1035F00001F0AEFE00214FF4545001F0A9FE552118
:103600004FF4685001F0A4FE4FF4885001F076FEAC
:10361000782006F079FF4FF4245001F06FFE01F09E
:103620005EB9FE48808849F2253188427ED147F64E
:10363000F001E52001F08CFE4FF48071012001F0D3
:1036400087FE4FF4E061022001F082FE41F230017A
:10365000032001F07DFE0021042001F079FE40F2FC
:103660000221082001F074FE0021092001F070FE03
:1036700000210A2001F06CFE00210C2001F068FE00
:1036800000210D2001F064FE00210F2001F060FEFA
:103690000021102001F05CFE0721112001F058FEEE
:1036A0000021122001F054FE0021132001F050FEF1
:1036B0000021072001F04CFE41F29061102001F042
:1036C00047FE40F22721112001F042FE9D211220E9
:1036D00001F03EFE4FF4C851132001F039FE2521C0
:1036E000292001F035FE0D212B2001F031FE0721AC
:1036F000302001F02DFE40F20331312001F028FE90
:103700000321322001F024FE40F20621352001F091
:103710001FFE0821362001F01BFE40F20641372033
:1037200001F016FE4FF44171382000E057E001F03F
:103730000FFE0721392001F00BFE40F202613C2010
:1037400001F006FE08213D2001F002FE002150207C
:1037500001F0FEFDEF21512001F0FAFD0021522081
:1037600001F0F6FD40F23F11532001F0F1FD4FF45E
:103770002741602001F0ECFD0121612001F0E8FD0E
:1037800000216A2001F0E4FD0021802001F0E0FD2D
:103790000021812001F0DCFD0021822001F0D8FD14
:1037A0000021832001F0D4FD0021842001F0D0FD10
:1037B0000021852001F0CCFD1021902001F0C8FDF2
:1037C0004FF4C061922001F0C3FD40F23311072095
:1037D00001F0BEFD2221002001F0BAFD1FE78F4855
:1037E000808849F2283188427ED141F28F01EC2055
:1037F00001F0AEFD41F23421EF2001F0A9FD4FF4BC
:103800008071012001F0A4FD4FF4E061022001F07D
:103810009FFD41F23001032001F09AFD00210420B8
:1038200001F096FD40F20221082001F091FD0021F7
:10383000092001F08DFD00210A2001F089FD012100
:103840000C2001F085FD00210D2001F081FD0021FB
:103850000F2001F07DFD0021102001F079FD0721EE
:10386000112001F075FD0021122001F071FD0021F1
:10387000132001F06DFD0121072001F069FD3220C8
:1038800006F00AFE41F29041102001F061FD40F285
:103890002721112001F05CFD322006F0FDFD8A2178
:1038A000122001F055FD322006F0F6FD4FF4D05104
:1038B000132001F04DFD0621292001F049FD0D21C5
:1038C0002B2001F045FD322006F0E6FD00212020EE
:1038D00001F03EFD0021212001F03AFD322006F0EA
:1038E000DBFD0021302000E074E001F031FD40F20A
:1038F0000461312001F02CFD40F20531322001F04D
:1039000027FD0021352001F023FD40F60941362036
:1039100001F01EFD4FF40171372001F019FD40F256
:103920000131382001F014FD40F20771392001F017
:103930000FFD00213C2001F00BFD40F60A213D2047
:1039400001F006FD322006F0A7FD0021502001F015
:10395000FFFCEF21512001F0FBFC0021522001F07F
:10396000F7FC40F23F11532001F0F2FC4FF42741E5
:10397000602001F0EDFC0121612001F0E9FC002153
:103980006A2001F0E5FC0021802001F0E1FC00212B
:10399000812001F0DDFC0021822001F0D9FC002112
:1039A000832001F0D5FC0021842001F0D1FC00210E
:1039B000852001F0CDFC1021902001F0C9FC4FF4CE
:1039C000C061922001F0C4FC40F23311072001F0E5
:1039D000BFFC24E61148808849F2203188427DD11D
:1039E0000021084601F0B4FC4FF48071012001F081
:1039F000AFFC4FF4E061022001F0AAFC41F230017B
:103A0000032001F0A5FC0021042001F0A1FC40F2FC
:103A10000221082001F09CFC002101E03801002077
:103A2000092001F095FC00210A2001F091FC012100
:103A30000C2001F08DFC00210D2001F089FC0021FB
:103A40000F2001F085FC322006F026FD40F2011126
:103A5000072001F07DFC322006F01EFD4FF4865158
:103A6000102001F075FC0721112001F071FC4FF4CA
:103A70008871122001F06CFC4FF43061132001F0CA
:103A800067FC0021292001F063FC44F210012B2087
:103A900001F05EFC0021502001F05AFCEF21512082
:103AA00001F056FC0021522001F052FC40F23F117F
:103AB000532001F04DFC4FF41C51602001F048FCF4
:103AC0000121612001F044FC00216A2001F040FC4A
:103AD0000021802001F03CFC002100E031E0812049
:103AE00001F036FC0021822001F032FC002183200D
:103AF00001F02EFC0021842001F02AFC0021852009
:103B000001F026FC1021902001F022FC00219220DF
:103B100001F01EFC0121932001F01AFC4FF4887182
:103B2000952001F015FC0021972001F011FC0021E7
:103B3000982001F00DFC40F27311072001F008FC01
:103B40006DE5FE48808849F2313188427DD141F2ED
:103B50001401E72001F0FCFB4FF48071012001F01B
:103B6000F7FB4FF40071022001F0F2FB41F2380143
:103B7000032001F0EDFB40F20221082001F0E8FBF8
:103B80000021092001F0E4FB00210A2001F0E0FB04
:103B900000210C2001F0DCFB00210D2001F0D8FBFE
:103BA00000210F2001F0D4FB0021102001F0D0FBF8
:103BB0000721112001F0CCFB0021122001F0C8FBED
:103BC0000021132001F0C4FBC82006F065FC41F27F
:103BD0009061102001F0BCFB40F22721112001F080
:103BE000B7FB322006F058FC0C21122001F0B0FB8C
:103BF000322006F051FC4FF40061132001F0A8FBC5
:103C00001121292001F0A4FB0B212B2001F0A0FBA6
:103C1000322006F041FC0021202001F099FB40F207
:103C20003F11212001F094FB0021302001F090FB96
:103C30004FF48371312001F08BFB0021322001F021
:103C400087FB4FF40171352000E064E001F080FB58
:103C500041F20A61362001F07BFB40F20771372008
:103C600001F076FB4FF48371382001F071FB40F2D4
:103C70000771392001F06CFB40F202413C2001F059
:103C800067FB40F60F413D2001F062FB0021502010
:103C900001F05EFBEF21512001F05AFB0021522080
:103CA00001F056FB40F23F11532001F051FB4FF45D
:103CB0001C51602001F04CFB0121612001F048FB08
:103CC00000216A2001F044FB0021802001F040FB2C
:103CD0000021812001F03CFB0021822001F038FB13
:103CE0000021832001F034FB0021842001F030FB0F
:103CF0000021852001F02CFB1021902001F028FBF1
:103D00004FF4C061922001F023FB40F233110720F1
:103D100001F01EFB83E48948808845F2084188420F
:103D20007ED14FF48071012001F012FB4FF4E0616D
:103D3000022001F00DFB41F23001032001F008FBED
:103D40000021042001F004FB40F20721082001F0CB
:103D5000FFFA0021092001F0FBFA00210A2001F0FE
:103D6000F7FA00210C2001F0F3FA00210D2001F0F8
:103D7000EFFA00210F2001F0EBFA142006F08CFB83
:103D800041F2B061102001F0E3FA0121112001F0AD
:103D9000DFFA0121172001F0DBFA4FF49C711220A9
:103DA00001F0D6FA4FF40061132001F0D1FA092195
:103DB000292001F0CDFA09212A2001F0C9FA0021B9
:103DC000A42001F0C5FA0021502001F0C1FAEF2132
:103DD000512001F0BDFA0021522001F0B9FA40F261
:103DE0003F11532001F0B4FA4FF41C51602001F050
:103DF000AFFA0121612001F0ABFA00216A2001F045
:103E0000A7FA0021802001F0A3FA0021812001F00F
:103E10009FFA0021822001F09BFA0021832000E01C
:103E200023E001F095FA0021842001F091FA0021AD
:103E3000852001F08DFA1321902001F089FA0021EC
:103E4000922001F085FA0321932001F081FA4FF4CA
:103E50008871952001F07CFA40F27311072001F07F
:103E600077FA322006F018FBB8E43448808841F233
:103E7000055188427ED10021072001F069FA3220E5
:103E800006F00AFB4FF48E71122001F061FA012155
:103E9000A42001F05DFA0F21082001F059FA082151
:103EA0000A2001F055FA08210D2001F051FA40F2E4
:103EB0000771302001F04CFA0721312001F048FA57
:103EC00040F20361322001F043FA4FF4E061332005
:103ED00001F03EFA40F20221342001F039FA0221C9
:103EE000352001F035FA41F60F71362001F030FA35
:103EF00040F20771372001F02BFA0021382001F041
:103F000027FA0021392001F023FA40F207713A2004
:103F100001F01EFA00213B2001F01AFA07213C2093
:103F200001F016FA00213D2001F012FA322006F0CD
:103F3000B3FA0121072001F00BFA01E0380100205B
:103F40000121172001F004FA322006F0A5FA4FF4FF
:103F5000BD51102001F0FCF940F21721112001F0B1
:103F6000F7F94FF48F71122001F0F2F94FF47061FC
:103F7000132000E097E001F0EBF900212A2001F086
:103F8000E7F90A21292001F0E3F94FF49F7112208B
:103F900001F0DEF90021502001F0DAF9EF21512083
:103FA00001F0D6F90021522001F0D2F940F23F1180
:103FB000532001F0CDF94FF41C51602001F0C8F9F5
:103FC0000121612001F0C4F900216A2001F0C0F94B
:103FD0000021802001F0BCF90021812001F0B8F916
:103FE0000021822001F0B4F90021832001F0B0F912
:103FF0000021842001F0ACF90021852001F0A8F90E
:104000001321902001F0A4F94FF44071922001F0A7
:104010009FF90521932001F09BF90021952001F0E3
:1040200097F90021972001F093F90021982001F0E1
:104030008FF94FF48071012001F08AF94FF4E061AB
:10404000022001F085F941F23801032001F080F9E6
:104050000021042001F07CF900210C2001F078F906
:1040600000210F2001F074F90021202001F070F9E7
:104070000021212001F06CF92121072001F068F9CD
:10408000142006F009FA6121072001F061F91420DB
:1040900006F002FA40F27311072001F059F91420DA
:1040A00006F0FAF995E4FE4880884BF20551884203
:1040B0007ED10021084601F04BF90021084601F0AD
:1040C00047F90021084601F043F90021084601F0B4
:1040D0003FF90121A42001F03BF9142006F0DCF99E
:1040E0004FF41C51602001F033F940F20221082006
:1040F00001F02EF94FF40571302001F029F943F257
:104100001571312001F024F940F20461322001F0F0
:104110001FF940F61661332001F01AF942F211211D
:10412000342001F015F94FF4A851352001F010F9B1
:1041300048F20751362001F00BF941F207413720D0
:1041400001F006F941F20341382001F001F9202184
:10415000392001F0FDF81A21902001F0F9F8002132
:10416000102001F0F5F80721112001F0F1F80021ED
:10417000122001F0EDF80021132001F0E9F81420DD
:1041800006F08AF94FF4E661102001F0E1F840F200
:104190003711112001F0DCF8142006F07DF94FF4FE
:1041A000DC71122001F0D4F8142006F075F900E05B
:1041B00083E04FF47061132001F0CAF880212A20B7
:1041C00001F0C6F84821292001F0C2F8142006F0B9
:1041D00063F94FF48071012001F0BAF84FF4E06107
:1041E000022001F0B5F841F23801032001F0B0F8E7
:1041F00040F20221082001F0ABF800210A2001F072
:10420000A7F800210C2001F0A3F800210D2001F0F7
:104210009FF830210E2001F09BF80021502001F082
:1042200097F8EF21512001F093F80021522001F07E
:104230008FF840F23F11532001F08AF84FF41C51DF
:10424000602001F085F80121612001F081F8002152
:104250006A2001F07DF81121902001F079F84FF4E7
:10426000C061922001F074F840F20241932001F005
:104270006FF80221942001F06BF8142006F00CF97D
:104280000121072001F064F8142006F005F96121EE
:10429000072001F05DF840F27311072001F058F893
:1042A0000021202001F054F80021212001F050F8D5
:1042B0002221002001F04CF811E3794880884CF26B
:1042C000055188427ED10021084601F041F80021C5
:1042D000084601F03DF8142006F0DEF800210846FB
:1042E00001F036F80021084601F032F800210846B6
:1042F00001F02EF80021084601F02AF80121A4203F
:1043000001F026F8142006F0C7F84FF41C51602085
:1043100001F01EF840F60601082001F019F840F2FD
:104320000371302001F014F80121312001F010F860
:104330000421322001F00CF84FF48171332001F098
:1043400007F84FF44071342001F002F840F20311F5
:10435000352000F0FDFF1F21362000F0F9FF40F26C
:104360000371372000F0F4FF0121382000F0F0FF46
:104370000421392000F0ECFF1521902000F0E8FF27
:104380004FF48261102000F0E3FF40F2472111203A
:1043900000F0DEFF4FF4DE71122000F0D9FF4FF481
:1043A0006061132000F0D4FF782006F075F84FF418
:1043B0008071012000F0CCFF4FF40071022000F06A
:1043C000C7FF00E050E041F23001032000F0C0FFE1
:1043D00008210A2000F0BCFF00210C2000F0B8FFEB
:1043E00020210E2000F0B4FF00210F2000F0B0FFCC
:1043F0000021202000F0ACFF0021212000F0A8FFC8
:104400003D212A2000F0A4FF142006F045F82D21BC
:10441000292000F09DFF0021502000F099FF4DF26F
:10442000EF01512000F094FF0021522000F090FF96
:1044300040F23F11532000F08BFF0021612000F07B
:1044400087FF00216A2000F083FF4FF44071922023
:1044500000F07EFF0521932000F07AFF4FF4807179
:10446000072000F075FF3AE20D48808844F2315190
:1044700088427CD10121002000F06AFF0A2006F06A
:104480000BF841F22861102000F062FF0E2112208B
:1044900000F05EFF40F63921132000F059FF01E0E3
:1044A000380100200A2005F0F7FF4021112000F01C
:1044B0004FFF5021152000F04BFF0A2005F0ECFFC4
:1044C0001E21122000F044FF0A2005F0E5FF4FF402
:1044D000B151102000F03CFF42F63921132000F0CA
:1044E00037FF0A2005F0D8FF4FF48071012000F05B
:1044F0002FFF4FF44071022000F02AFF41F23801F3
:10450000032000F025FF40F20221082000F020FFE8
:1045100008210A2000F01CFF0021302000F018FFC5
:1045200040F20241312000F013FF4FF4837132203A
:1045300000F00EFF40F20351332000F009FF4FF46A
:104540008271342000F004FF40F20131352000F088
:10455000FFFE40F20771362000F0FAFE40F205310E
:10456000372000F0F5FE4FF40271382000E040E003
:1045700000F0EEFE40F60B71392000F0E9FE02215A
:10458000412000F0E5FE4FF41C51602000F0E0FEF9
:104590000121612000F0DCFE4FF40471902000F056
:1045A000D7FE4FF48571922000F0D2FE04219320B3
:1045B00000F0CEFE4FF48071A02000F0C9FE012172
:1045C000072000F0C5FE2121072000F0C1FE2321B5
:1045D000072000F0BDFE3321072000F0B9FE40F2B5
:1045E0003311072000F0B4FE0021A02000F0B0FE3F
:1045F00075E1C148808844F2355188427ED130212E
:10460000152000F0A5FE10219A2000F0A1FE202127
:10461000112000F09DFE43F22841102000F098FE8A
:104620000221122000F094FE41F23801132000F024
:104630008FFE282005F030FF1221084600F088FE8A
:10464000282005F029FF43F22041102000F080FED1
:1046500043F23801132000F07BFE462005F01CFFDA
:104660000021302000F074FE40F20241312000F0C1
:104670006FFE40F20731322000F06AFE4FF44171C4
:10468000332000F065FE0421342000F061FE40F28A
:104690000141352000F05CFE40F20771362000F049
:1046A00057FE40F20531372000F052FE4FF4C26150
:1046B000382000F04DFE4FF4C261392000F048FE72
:1046C0004FF48071012000F043FE4FF4407102204E
:1046D00000F03EFE41F23001032000F039FE40F6CA
:1046E0000801082000F034FE08210A2000F030FE06
:1046F0004FF41C51602000F02BFE00E031E001215E
:10470000612000F025FE4FF49F71902000F020FE04
:104710004FF48071922000F01BFE4FF480719320C3
:1047200000F016FE4FF44051A02000F011FE1021C1
:10473000A32000F00DFE0121072000F009FE212139
:10474000072000F005FE2321072000F001FE3321A1
:10475000072000F0FDFD40F23311072000F0F8FDC6
:10476000BDE06548808841F663118842F8D1E220B7
:1047700000F0C4FD1D2000F0B7FD022000F0B4FDE4
:10478000042000F0B1FD642005F0BEFEE02000F042
:10479000B5FD012000F0A8FD0A2005F07DFEE02017
:1047A00000F0ACFD032000F09FFD0C2005F074FE2E
:1047B000012000F0A3FD0A2005F06EFEE62000F0C7
:1047C0009DFD2F2000F090FDFF2000F08DFDFF20CB
:1047D00000F08AFDB02000F091FD202000F084FD63
:1047E000002000F081FD032000F07EFD40F21F302C
:1047F00000F07AFD012000F077FD40F2DF1000F0BC
:1048000073FD002000F070FDB42000F077FD04205F
:1048100000F06AFD40F21F4000F066FD002000F04D
:1048200063FD2E2000F060FD002000F05DFD002003
:1048300000F05AFD002000F057FD002000F054FD6C
:10484000B62000F05BFD022000F04EFD4FF4037037
:1048500000F04AFD002000F047FD172000F044FD65
:10486000152000F041FD002000F03EFD002000F08A
:104870003BFDF02000F042FD032000F035FD292033
:1048800000F03CFDD02000F039FD002000F02CFDB0
:10489000BE2000F033FD052000F026FDFE2000F0D4
:1048A00023FD012000F020FD002000F01DFD002070
:1048B00000F01AFD002000F017FDB82000F01EFDEA
:1048C000032000F011FD012000F00EFDBA2000F0E1
:1048D00015FD012000F008FD642000F037F80120EC
:1048E000FCF700F94FF47840044908804FF6FF7058
:1048F000FCF79AF81FB000BD380100202A00002004
:10490000044908884FF6FF7101EA0020014909882F
:10491000084370470008006C10B501460023CA0A1E
:10492000C1F3451401F01F03500340EA841040EA2C
:10493000430010BD10B50446204600F0DFFC052002
:1049400005F0E2FDFFF7DCFF10BD00002DE9F047A8
:104950000446BE2000F0D2FC052000F0C5FC204635
:10496000FBF7CBFC07464FF066320C4BFBF753FCD2
:104970000546FBF7CFFC1FFA80F9484600F0B4FC6F
:10498000012000F0B1FCFF2000F0AEFC002000F0A0
:10499000ABFC002000F0A8FCBDE8F0876666044090
:1049A000F0B5054600240027B748807901280BD1CF
:1049B000B548808846F60401884205D0B248808810
:1049C00041F66311884208D1AF488079F0B9AE480A
:1049D000808841F66311884218D1082D15D2DFE88E
:1049E00005F00406080A0C0E101206250DE0072536
:1049F0000BE0042509E0052507E0012505E0002579
:104A000003E0032501E0022500BF00BF9E48808827
:104A100049F24131884217D09B48808846F604010C
:104A2000884211D09848808845F2103188420BD0D6
:104A30009548808845F21051884205D09248808878
:104A400041F6631188427DD1082D1CD2DFE805F0C4
:104A50000406090C0F12151800BF14E044F080047E
:104A600011E044F040040EE044F0C0040BE044F0D8
:104A7000200408E044F0600405E044F0A00402E0F3
:104A800044F0E00400BF00BF7F48808845F2105129
:104A9000884202D14FF4585700E036277A48808880
:104AA00045F2103188420DD07748808845F2105188
:104AB000884207D07448808841F66311884201D04B
:104AC00044F008047048808846F60401884201D109
:104AD00044F002042146384600F03AFC6A488088D7
:104AE00041F6631188421DD004F0200068B1664889
:104AF000008865494988884214DA634806884088F6
:104B000061490880084646800CE05F4800885E499D
:104B10004988884206DD5C48068840885A490880F2
:104B2000084646805848808845F21051884254D142
:104B30005549488900F0E2FB002000F0D5FB5249BE
:104B4000498900E078E0491C88B200F0D7FB0020DA
:104B500000F0CAFB4C494989891C88B200F0CEFBA1
:104B600049490988491EC1F30F2000F0BDFB4649A1
:104B70004989C91C88B200F0C1FB43490978491E24
:104B8000C8B200F0B1FB4049888900F0B7FB0020B3
:104B900000F0AAFB3C498989491C88B200F0AEFBB1
:104BA000002000F0A1FB38498989891C88B200F0F7
:104BB000A5FB35494988491EC1F30F2000F094FB3D
:104BC00031498989C91C88B200F098FB2E4989783F
:104BD000491EC8B200F088FB55E02B49488900F017
:104BE0008DFB002000F080FB002000F07DFB2649BB
:104BF0000988491EC1F30F2000F076FB224909788D
:104C0000491EC8B200F070FB1F49888900F076FB8E
:104C1000002000F069FB002000F066FB1A4949887B
:104C2000491EC1F30F2000F05FFB17498978491E28
:104C3000C8B200F059FB26E0082D1CD2DFE805F0D1
:104C400004070A0D0F12151844F0300413E044F065
:104C5000100410E044F020040DE000BF0BE044F02D
:104C6000380408E044F0280405E044F0180402E0A9
:104C700044F0080400BF00BF032744F480542146D9
:104C8000384600F065FBF0BD3801002030B5044621
:104C90000D466748808849F24131884205D0644812
:104CA000808845F21031884214D16149488900F06A
:104CB00025FB201200F018FBE0B200F015FB5C4968
:104CC000888900F01BFB281200F00EFBE8B200F010
:104CD0000BFBABE05648808846F6040188421DD1A4
:104CE00053488079012804D151480088401E001B98
:104CF00084B24F49488900F001FB201200F0F4FA19
:104D0000E0B200F0F1FA4A49888900F0F7FA281277
:104D100000F0EAFAE8B200F0E7FA87E04448808859
:104D200041F66311884247D141488079A8B940488B
:104D30000088401E001B84B23D49488900F0DEFA1D
:104D4000002000F0D1FA002000F0CEFA201200F08E
:104D5000CBFAE0B200F0C8FA16E03549488900F015
:104D6000CDFA201200F0C0FAE0B200F0BDFA3049EE
:104D70000988491EC1F30F2000F0B6FA2C490978C2
:104D8000491EC8B200F0B0FA2949888900F0B6FA85
:104D9000281200F0A9FAE8B200F0A6FA24494988DE
:104DA000491EC1F30F2000F09FFA21498978491E5E
:104DB000C8B200F099FA39E01D48808845F21051D8
:104DC000884220D11A49488900F098FA201200F050
:104DD0008BFA17494989491C88B200F08FFAE0B272
:104DE00000F082FA1249888900F088FA281200F04F
:104DF0007BFA0F498989491C88B200F07FFAE8B232
:104E000000F072FA12E00A488079012804D10848BB
:104E10000088401E001B84B205494889214600F0E5
:104E200097FA03498889294600F092FA30BD0000BC
:104E3000380100202DE9F04F86B004460D46164695
:104E40001F46A019401E1FFA80F8E819401E1FFADD
:104E500080F9AF48808846F6122188425CD1AC4880
:104E6000807950BB4FF4047000F048FA204600F0FF
:104E70003BFA40F2112000F041FA304600F034FADB
:104E800040F2122000F03AFA284600F02DFA40F2E3
:104E9000132000F033FA384600F026FA4FF4007081
:104EA00000F02CFA204600F01FFA40F2012000F03A
:104EB00025FA284600F018FA29E040F2122000F006
:104EC0001DFA204600F010FA40F2132000F016FA06
:104ED000304600F009FA4FF4047000F00FFA28464B
:104EE00000F002FA40F2112000F008FA384600F013
:104EF000FBF940F2012000F001FA204600F0F4F93D
:104F00004FF4007000F0FAF9284600F0EDF940F295
:104F1000022000F0F3F9F8E07D48808849F2413141
:104F2000884215D07A48808845F2103188420FD0E7
:104F30007748808846F60401884209D07448807911
:104F400001282AD17248808841F66311884224D111
:104F50006F49488900F0D2F9201200F0C5F9E0B29B
:104F600000F0C2F94FEA282000F0BEF908F0FF0077
:104F700000F0BAF96649888900F0C0F9281200F0FB
:104F8000B3F9E8B200F0B0F94FEA292000F0ACF92B
:104F900009F0FF0000F0A8F9B7E05D48808841F60D
:104FA000631188422DD15A480088801B001B84B2AF
:104FB000E819401E87B25649488900F09FF920122F
:104FC00000F092F9E0B200F08FF9A119491EC1F387
:104FD0000F2000F089F9A119491EC8B200F084F928
:104FE0004B49888900F08AF9281200F07DF9E8B26F
:104FF00000F07AF9381200F077F9F8B200F074F99D
:1050000083E04348808845F21051884248D14049A6
:10501000488900F073F9201200F066F93C4949898B
:10502000491C88B200F06AF9E0B200F05DF9384935
:105030004989891C88B200F061F94FEA282000F004
:1050400053F933494989C91C88B200F057F908F06F
:10505000FF0000F049F92E49888900F04FF9281225
:1050600000F042F92A498989491C88B200F046F9C2
:10507000E8B200F039F926498989891C88B200F024
:105080003DF94FEA292000F02FF921498989C91CEF
:1050900088B200F033F909F0FF0000F025F934E0A0
:1050A0001B48807901280FD1AA46CB4618480088B2
:1050B000A0EB0800401E80B2019015480088001B3C
:1050C000401E80B2009004E0A246C3460195CDF890
:1050D00000905020059051200490522003905320BE
:1050E00002905146059800F033F95946049800F0B3
:1050F0002FF90199039800F02BF90099029800F01C
:1051000027F929462046FFF7C1FD06B0BDE8F08F1C
:10511000380100202DE9FC4F80460E4617461C46FC
:10512000DDF82CA001962046E31704EB5373DB1047
:1051300021464FEAE47C04EB5C7C4FEAEC0CA4EBE8
:10514000CC0CBCF1000F02D04FF0010C01E04FF08D
:10515000000C6344224604EBD27C4FEA6C0C03FB48
:105160000CF3DBB20093A7F12000C7B2002571E079
:105170000C2C07D107EB4700394901EB800010F8F0
:10518000059013E0102C05D1364800EB071010F8FD
:1051900005900BE0182C07D107EBC700324901EB53
:1051A000800010F8059001E0BDE8FC8F4FF0000B87
:1051B0004AE02E48808846F61221884213D109F031
:1051C000800030B12A48028831464046FBF796FD00
:1051D0001CE0BAF1000F19D126480288314640463A
:1051E000FBF78CFD12E009F0800030B12048028806
:1051F00031464046FBF790FD08E0BAF1000F05D1BB
:105200001C48028831464046FBF786FD4FEA49605C
:105210004FEA1069701C86B214484088B04200DC26
:10522000C2E70198301AA0420AD1019E08F101009C
:105230001FFA80F80D480088404500DCB4E706E01E
:105240000BF1010000F0FF0BBBF1080FB1DB00BF59
:10525000681CC5B2009885428ADB00BFA4E7000045
:10526000DCAF000850B4000840BA00083801002044
:105270002A0000202C0000202DE9F84F06460F469A
:1052800014461D4606F0FF0A4FF0000B04FB0BF915
:105290002846FAF7B9FF00FB04F9A046B14408EB31
:1052A000070000F0FF0816E04E4502DB56463819AD
:1052B00087B2474500DB14E0002000902A7823469F
:1052C00039463046FFF726FF204604EBD07106EB47
:1052D00061018EB26D1C28787E2802DC2878202897
:1052E000E2DA00BFBDE8F88F01124900024A1180DE
:1052F0000106C90D118070470008006C01124900B9
:10530000024A11800106C90D11807047FE07006C2A
:1053100030B5054600242846FFF7FEFA0446C4F3DC
:105320004F20024908800C8030BD00000008006C4E
:105330000548008900124000044908800248007AAC
:10534000400008807047000038010020FE07006C14
:1053500002125200064B1A80021252001A800A12E0
:1053600052009B1C1A800A06D20D1A80704700005A
:10537000FE07006C00BFFEE730B505460C4622462E
:105380000021284600F001F830BD2DE9F041034628
:105390000C4617460FB9BDE8F08103B9FBE70025BD
:1053A000002202E02D022543521C042AFAD338467B
:1053B00003F0030C1946BCF1000F08D0624603E06D
:1053C00001F8014B401E521C08B1042AF8D30E46C6
:1053D00001E020C6001F0428FBD2314602E001F89C
:1053E000014B401E0028FAD100BFD4E770470000EF
:1053F00070B5002100230F22C47804B3154C246833
:1054000004F4E064C4F5E064210AC1F10403CA4075
:10541000447804FA03F184781440214309010E4CC6
:105420000678A155047804F01F050124AC400578E6
:105430006D11AD0005F1E025C5F8004109E00478E3
:1054400004F01F050124AC40044D0678761145F8A0
:10545000264070BD0CED00E000E400E080E100E0DB
:1054600002490143024A1160704700000000FA053A
:105470000CED00E07047000010B50348006810B163
:1054800001480068804710BD6C00002070B50446DC
:1054900000F0C2F80020484908704849087048499F
:1054A00008704849086048490860484908704849F8
:1054B00008704849087048490860484908604849E8
:1054C000086048490870484800680A21B0FBF1F0BC
:1054D000464908604648006858B14648056845B1E5
:1054E0004348066803E0761E002028602D1D002E2C
:1054F000F9D10020404908604049086040490860EF
:1055000040490860404908604049086040490860D7
:105510004049087002F044FA02F042FB204601F0D4
:105520009FFB208800B170BD204601F0B9FF2088A4
:1055300000B1F8E7204601F0BFFF208800B1F2E794
:10554000204602F0A3F8208800B1ECE7204602F0E4
:1055500057FA208800B1E6E7204602F0A7FC208831
:1055600000B1E0E7204603F011F8208800B1DAE747
:10557000204601F001FF208800B1D4E7204601F069
:105580000BFD208800B1CEE7204604F067F82088A4
:1055900000B1C8E7204602F03DFF208800B1C2E715
:1055A000204604F0B7F8208800B1BCE701F07EFA8D
:1055B000FFF760FF00BFB6E78000002088000020F2
:1055C000D0000020280100202C010020B60000207F
:1055D000B7000020B8000020C4000020C800002050
:1055E000CC000020D8000020FCC70008D400002018
:1055F000CCC70008C8C70008600000206400002075
:10560000680000206C000020700000207400002062
:1056100078000020060100200A4A1168002002E0FC
:10562000002204C1401C084A12689042F8D3054A7F
:105630001268054B1B6802EB8302121F034B1A60B2
:1056400070470000C8C70008CCC700083001002020
:1056500008480078012800D0704707480078FA28E9
:1056600000DBF9E704480078401C0349087000BFDC
:10567000F2E70000880000208000002010B5002420
:105680002E480078012800D010BD00BFFAF770FD49
:10569000044600BF2A48007828B900BF2046FAF720
:1056A0006BFD00BFF0E726480078401E24490870D3
:1056B00008460078002805DD00BF2046FAF75CFDAB
:1056C00000BFE1E71F480078002805DD00BF204645
:1056D000FAF752FD00BFD7E702F04EF91A490870F9
:1056E0000846007800EB4000184951F8200018499E
:1056F00008600846006817490968884205D100BF5C
:105700002046FAF739FD00BFBEE711480068D0F81F
:105710009000401C0E490968C1F890000E480068CE
:10572000401C0D4908604FF080500C49086000BFD4
:105730002046FAF721FD00BF00BFA5E78800002042
:1057400080000020D0000020B7000020381A002080
:105750002C01002028010020FC00002004ED00E0C6
:1057600010B5002420480078002800DD10BD1F4837
:105770000078002800DDF9E700BFFAF7F9FC0446DD
:1057800000BF02F0F9F81A4908700846007800EBEB
:105790004000184951F82000174908600846006881
:1057A00016490968884205D100BF2046FAF7E4FC93
:1057B00000BFDBE710480068D0F89000401C0E499D
:1057C0000968C1F890000E480068401C0C49086048
:1057D0004FF080500B49086000BF2046FAF7CCFC20
:1057E00000BF00BFC2E7000080000020D000002002
:1057F000B7000020381A00202C01002028010020CA
:10580000FC00002004ED00E070B5044600251A48B5
:105810000078002803DD46F66250208070BD1748EE
:105820000078012803D045F689602080F6E7144807
:105830000078FA2803DB45F209202080EEE700BF5C
:1058400000BFFAF795FC054600BFFAF733FF00BF2B
:105850000B480078401C0A49087002F085FA00BF26
:10586000FAF742FF00BF2846FAF786FC00BF00BFE8
:105870000020208000BFD1E78000002088000020A9
:10588000D00000202DE9F04105460C4616460027C1
:1058900000BF00BFFAF76CFC074600BFFAF70AFF2B
:1058A00000BF012D03D000200E49087002E0012046
:1058B0000C49087014B10C48046006E00B480068FD
:1058C0000A21B0FBF1F00849086000BFFAF70CFFAD
:1058D00000BF3846FAF750FC00BF00BF0020308000
:1058E000BDE8F081D8000020D4000020FCC70008EB
:1058F00070B50446002523480078002803DD46F6ED
:105900006550208070BD20480078012803D045F6FE
:1059100089602080F6E71D48007818B946F6645083
:105920002080EFE700BF00BFFAF722FC054600BF6A
:10593000FAF7C0FE00BF15480078401E13490870F2
:105940000846007800280CDD00BFFAF7CDFE00BF46
:105950002846FAF711FC00BF00BF46F663502080CE
:10596000D0E702F00FFA00BFFAF7BEFE00BF2846EC
:10597000FAF702FC00BF00BFFFF7F2FE0020208014
:1059800000BFBFE78000002088000020D00000207A
:1059900010B5044612480078E8B901F0EDFF11494E
:1059A000087008460078104908700E48007800EB2F
:1059B00040000E4951F820000D4908600846006873
:1059C0000C490860012006490870FAF78DFD43F67E
:1059D0009920208002E045F68A60208010BD0000FA
:1059E00088000020B7000020B6000020381A0020F0
:1059F0002C010020280100202DE9F04107464FF03E
:105A0000000800BF00BFFAF7B3FB804600BFFAF7FB
:105A100051FE00BF002047490860474908804749B8
:105A20000880474908604749086047490860474976
:105A30000860474908604749088100BFFAF754FEEB
:105A400000BF4046FAF798FB00BF00BF00BF00BF91
:105A5000FAF78EFB804600BFFAF72CFE00BF3E48E7
:105A6000046800BFFAF740FE00BF4046FAF784FB27
:105A700000BF00BF26E000BF00BFFAF779FB8046F9
:105A800000BFFAF717FE00BF00207834E0632064FF
:105A900020602063A061A082E0826062A062FAF7C9
:105AA00097FE2062783C04F164060020B081D4F8AF
:105AB000C04000BFFAF718FE00BF4046FAF75CFB93
:105AC00000BF00BF002CD6D100BF00BFFAF750FBCB
:105AD000804600BFFAF7EEFD00BF2048056800BF12
